:020000040000FA
:1000000098040010B5020000BD020000BF0200000D
:10001000C1020000C3020000C50200000000000091
:10002000000000000000000000000000C702000007
:10003000C902000000000000CB020000890200009D
:10004000CF0200001F070000CF020000CF02000017
:10005000CF020000CF020000CF020000CF0200005C
:10006000CF020000CF020000CF020000CF0200004C
:10007000CF020000CF020000CF020000CF0200003C
:10008000CF020000CF020000CF020000CF0200002C
:10009000CF020000CF020000CF020000CF0200001C
:1000A0006F2A0000CF020000CF020000CF02000044
:1000B000CF020000CF020000CF020000CF020000FC
:1000C000CF020000CF020000CF02000000F002F8D3
:1000D00000F041F80AA090E8000C82448344AAF1A1
:1000E0000107DA4501D100F036F8AFF2090EBAE89F
:1000F0000F0013F0010F18BFFB1A43F0010318475C
:10010000EC9206001C930600103A24BF78C878C110
:10011000FAD8520724BF30C830C144BF04680C600D
:10012000704700000023002400250026103A28BF55
:1001300078C1FBD8520728BF30C148BF0B60704759
:10014000642903F0CB87002070471FB504F017F82F
:100150001FBD10B510BD04F0BCF81146FFF7F5FF48
:1001600002F00CF904F0DAF803B4FFF7F2FF03BC75
:1001700004F0DEF80B49D1F800C04A685CF8043B93
:100180001068184442F8040B8C4528BFA1F1DC0C20
:100190008A4228BFA1F1DC02C1F800C04A6020F009
:1001A000004070473002001010B500F0A9F810BDF3
:1001B0007047704770471FB5044614F0080F2AD0E7
:1001C000032002F027FC2B4909682B4A12880223DE
:1001D00003FB0211884217D0274800888030264947
:1001E000088008460088C0F3090008800846008897
:1001F00022490988401AC0F30900B0F5007F0AD1EE
:1002000001201F49087006E000201D4908701A48A7
:1002100000881A4908800A20F0B11648006816497B
:100220000988022202FB010000900420ADF80400BE
:100230000020ADF8060013480068029000200390EB
:10024000039820F00200801C03906946032002F00E
:100250002BFB032002F0A4FB1FBD704770477047C3
:1002600070477047704770477047704770477047D6
:10027000704700002C0000104600001044000010E1
:10028000480000102800001010B5084801680068F8
:10029000401C064A1060092905D300201146086059
:1002A00001200349087002F09DFD10BD740000108C
:1002B000800000100948804709480047FEE7FEE734
:1002C000FEE7FEE7FEE7FEE7FEE7FEE7FEE7FEE706
:1002D00004480549034A054B7047000001310000FE
:1002E000CD00000098020010980400109802001041
:1002F000704770477047704700000000FFFFFFFF26
:100300000020EB490880EB490870EB4908704FF07A
:100310000110EA4908600020E9490860E9490860DD
:10032000704710B5E849002002F01FFA10BD10B563
:10033000E6488088402801DD402401E0E3488488C5
:10034000E24822460168802002F03DFA0446DF4878
:1003500000682044DD49086008468088001B8880CA
:1003600010BD10B5D9480168002002F0FEF904461E
:10037000D64800682044D549086008468088001B9C
:10038000888010BD10B500221146802002F01BFAB3
:1003900010BD10B5CE49002002F0E7F910BD10B530
:1003A0000446082C6FD2DFE804F06E04F2F16E6EA2
:1003B000F0EFFFF7B6FFC4490978C80902F08CF9DD
:1003C000C148C088C1498880BF480078C0F3411047
:1003D00010B1012879D190E0BB4840780C2875D243
:1003E000DFE800F0060D8815881D333A41555C8121
:1003F00004F000F800B9E1E0FFF799FF7BE000208E
:1004000004F058F800B9D9E0FFF7BCFF73E0012011
:1004100004F050F800B9D1E0FFF7B4FF6BE000BF83
:10042000A948007810F01F0F06D1A748807840F047
:100430008000A049087001E0002001E000BF012019
:1004400000B9BBE0FFF79EFF55E003F077FF00B96E
:10045000B4E0FFF76CFF4EE0002002F065F90020E9
:100460009A49888047E000BF9748007810F01F0F36
:1004700003D191489549086001E0002001E000BFE8
:10048000012008B99AE010E1FFF751FF33E004F0D2
:1004900087F800B992E0FFF775FF2CE000BF8A48AB
:1004A000007800F01F00012814D18348007870B153
:1004B0008548007987490978884208DA82480079B6
:1004C000854908448149086003E076E012E0002095
:1004D00004E001E0002001E000BF012000B96DE070
:1004E000FFF725FF07E004F035F900B966E0FFF7F4
:1004F00049FF00E062E000BF67E07348007810F059
:100500001F0004D0012803D0022854D12DE055E06B
:100510006D48007938B16C480079012803D06A48E9
:100520000079022820D16848407882280BD004DC6A
:10053000012814D0812816D104E0832804D084280F
:1005400011D102E000BF00BF00BF02F0B7FB28B12D
:100550005F485E490860FFF7EAFE2DE003E05C4873
:100560005A49086028E000BF28E0574840788228B0
:100570000FD004DC012818D081281AD108E0832884
:1005800008D0842815D106E08BE086E06CE01EE000
:1005900000BF00BF00BF02F0F9FB28B14C484B4937
:1005A0000860FFF7C4FE07E003E0494847490860D8
:1005B00002E000BF02E001E007E000BF802002F09F
:1005C000B3F800204149888000BF00BF6DE03E487D
:1005D0000078C00945D13D48808880B3FFF7C1FE4F
:1005E0003A48808858BB38480078C0F3411010B1B1
:1005F000012834D100E0E1E73348007810F01F0013
:1006000004D0012803D0022827D119E0D6E72E48CC
:10061000007938B12C480079012803D02A480079A4
:1006200002280BD128484078012806D102F086FB29
:1006300010B1FFF7A7FE11E000BF00BFBEE712E058
:1006400021484078012806D102F0A2FB10B1FFF743
:1006500099FE03E000BF00BFB0E7AFE700E0ADE701
:1006600001E0FFF796FE20E0174800780121B1EB8A
:10067000D01F02D1FFF75BFE0EE00E48007810F0AD
:10068000800F09D00B48007800F07F0009490870FE
:100690000846007801F019FF07E0002002F051F849
:1006A00003E0802002F04DF800BF00BF10BD000045
:1006B00000000010020000100300001004000010F1
:1006C000080000100C00001020000010180000109E
:1006D000940000101000001011000010002100E034
:1006E000491C8142FCDB7047FE49096841F080717A
:1006F000FC4A116000BFFB49486810F0004FFAD077
:10070000096821F08071F74A1160F82101EA10218F
:10071000082202EAD0121144F34A1180704770B5E2
:10072000F2480078002836D0F1480068F14909887D
:1007300030F91140F0480088EE490988401AC0F3AA
:100740000905B5F5607F04D1EA480088401CE949F5
:100750000880802D04D9E7480088401CE5490880BE
:10076000E4480088C0F30900E2490880002C05DA5B
:10077000E2480068001BE149086004E0DF480068C7
:100780002044DE490860DE4800684443241404F530
:100790000044A4B201E04FF40044DA48007808B104
:1007A0004FF400444FF6C0702040D7490860D74846
:1007B00001880068401CD54A10608805800D1AD158
:1007C000FFF792FFD2480088B0F5004F03D1002018
:1007D000CB49086006E0CE480088C34909884843F1
:1007E000C7490860C5480068040D0020C349086077
:1007F000072C00DD072401204FF04021086002F0A3
:1008000040FB402816D1002003F039FA012001F006
:10081000C4FD182001F0C1FD002001F005FF01F02A
:1008200069FE012001F000FF002003F028FA0020FB
:1008300003F022FA70BD1CB502F0F3FCB548406825
:1008400020F47010B34948600846406840F4101026
:100850004860B148006840F48050B049C1F8C40015
:10086000AF48A04908604FF40040A7490860AD4870
:100870000068C0F381000190019830B1012809D0CF
:1008800002280BD003280ED000BFA74800688008BC
:1008900000900DE0A4480068009009E0A2480068BC
:1008A0004008009004E0A0480068C008009000BF25
:1008B00000BF4FF4FA410098B0FBF1F0401E4FF03A
:1008C00040218861032048610120486000BF012168
:1008D000814042094FF0E02303EB8202C2F800118D
:1008E00000BF01F05CFE012001F09EFE1CBD38B58A
:1008F0000124002003F0C3F9002003F0BDF94FF6F6
:10090000FF7003F0B6F989A301220021084603F025
:1009100040FA4FF6FF7003F0ACF986A301220021E4
:10092000022003F036FA86A301220021032003F0FF
:1009300030FA86A301220021042003F02AFA86A3BC
:1009400001220021052003F024FA86A301220021C0
:10095000062003F01EFAF2E102F093FA202801D1FA
:10096000641C04E002F08DFA082800D1641E012CFA
:1009700001DA012402E0052C00DD0524012C30D130
:100980004FF6FF7003F075F968A3012200210846B5
:1009900003F0FFF94FF4784003F06BF965A30122EF
:1009A0000021022003F0F5F94FF6FF7003F061F922
:1009B00063A301220021032003F0EBF963A30122CA
:1009C0000021042003F0E5F963A3012200210520A2
:1009D00003F0DFF963A301220021062003F0D9F917
:1009E00029E1022C34D14FF6FF7003F042F94FA3F6
:1009F00001220021084603F0CCF94FF6FF7003F006
:100A000038F94CA301220021022003F0C2F94FF46F
:100A1000784003F02EF94AA301220021032003F0BD
:100A2000B8F94FF6FF7003F024F948A30122002122
:100A3000042003F0AEF948A301220021052003F0B1
:100A4000A8F948A301220021062003F0A2F9F2E050
:100A5000032C34D14FF6FF7003F00BF933A30122BE
:100A60000021084603F095F94FF6FF7003F001F9F5
:100A700030A301220021022003F08BF930A30122D0
:100A80000021032003F085F94FF4784003F0F1F8DA
:100A90002EA301220021042003F07BF94FF6FF7002
:100AA00003F0E7F82CA301220021052003F071F9DF
:100AB0002CA301220021062003F06BF9BBE0042CDB
:100AC0007DD14FF6FF7003F0D4F818A30122002166
:100AD000084603F05EF94FF6FF7003F0CAF815A35D
:100AE000012245E0004003404A0000104800001089
:100AF0002C00001044000010460000104C000010B4
:100B0000400000103C00001000C0084050000010E1
:100B10006C00001000C00240C4C00F4000C00F4075
:100B2000040E2000A8C10F408800001047616C6CC3
:100B300065727900616E64726F69642E626D700017
:100B40006170706C652E626D700000006368726F7A
:100B50006D652E626D700000676F6F676C652E6249
:100B60006D7000007361666172692E626D700000C5
:100B70000021022003F00DF9AFF23C030122002115
:100B8000032003F006F9AFF23C0301220021042008
:100B900003F0FFF84FF4784003F06BF8AFF248032E
:100BA00001220021052003F0F4F84FF6FF7003F056
:100BB00060F8AFF2500301220021062000E002E0BD
:100BC00003F0E7F837E0052C35D14FF6FF7003F05E
:100BD00050F8AFF2A80301220021084603F0D9F82B
:100BE0004FF6FF7003F045F8AFF2B8030122002181
:100BF000022003F0CEF8AFF2B80301220021032057
:100C000003F0C7F8AFF2BC0301220021042003F077
:100C1000C0F8AFF2BC0301220021052003F0B9F8AF
:100C20004FF4784003F025F8AFF2C8030122002109
:100C3000062003F0AEF802F024F9012877D1012C48
:100C400015D1002003F01BF80FE0F74896231A4651
:100C500000210090084603F010F902F012F9402834
:100C600003D1002003F00BF800E0EEE75FE0022C78
:100C700015D1002003F003F80FE0EC4896231A4644
:100C800000210090084603F0F8F802F0FAF8402836
:100C900003D1002002F0F3FF00E0EEE747E0032C71
:100CA00015D1002002F0EBFF0FE0E14896231A4631
:100CB00000210090084603F0E0F802F0E2F8402836
:100CC00003D1002002F0DBFF00E0EEE72FE0042C70
:100CD00015D1002002F0D3FF0FE0D64896231A4624
:100CE00000210090084603F0C8F802F0CAF8402836
:100CF00003D1002002F0C3FF00E0EEE717E0052C6F
:100D000015D1002002F0BBFF0FE0CB4896231A4616
:100D100000210090084603F0B0F802F0B2F8402835
:100D200003D1002002F0ABFF00E0EEE700BF02F0CD
:100D3000A8F8402803D1002002F0A1FF00E00BE654
:100D400000BF38BDF8B5064600242EE0002529E096
:100D500004EB440006EB800050F8250001280CD17C
:100D6000B64804EB8402110105EB850200901001E6
:100D700050231A4603F081F813E004EB440006EB1D
:100D8000800050F8250002280BD1AD4804EB840206
:100D9000110105EB85020090100150231A4603F063
:100DA0006CF86D1C032DD3DB641C032CCEDBF8BD6B
:100DB00010B5014600240868012806D148680128BA
:100DC00003D18868012800D110BD0868022806D127
:100DD0004868022803D18868022800D1F4E708682F
:100DE000012806D1C868012803D18869012800D1EB
:100DF000EAE70868022806D1C868022803D1886992
:100E0000022800D1E0E70868012806D10869012816
:100E100003D1086A012800D1D6E70868022806D164
:100E20000869022803D1086A022800D1CCE70869C2
:100E3000012806D14868012803D1C869012800D1DA
:100E4000C2E70869022806D14868022803D1C869A8
:100E5000022800D1B8E70869012806D1C86801282E
:100E600003D14869012800D1AEE70869022806D1FC
:100E7000C868022803D14869022800D1A4E708699C
:100E8000012806D18868012803D18869012800D18A
:100E90009AE70869022806D18868022803D1886980
:100EA000022800D190E7086A012806D14869012884
:100EB00003D18868012800D186E7086A022806D194
:100EC0004869022803D18868022800D17CE7086AB3
:100ED000012806D18869012803D1C869012800D1F9
:100EE00072E7086A022806D18869022803D1C86916
:100EF000022800D168E700220FE0002309E002EB9E
:100F0000420001EB800050F8230008B9012402E000
:100F10005B1C032BF3DB00BF521C032AEDDB0CB977
:100F2000002051E703204FE70CB50A68012A09D1D8
:100F30004A68012A06D18A6822B900220092022258
:100F4000019232E14A68012A08D18A68012A05D152
:100F50000A681AB900220092019226E18A68012AE1
:100F600008D14A69012A05D10A6A1AB902220092F7
:100F700001921AE14A69012A09D10A6A012A06D1B5
:100F80008A6822B900220092022201920DE10A6AC7
:100F9000012A09D1CA69012A06D18A6922B9022225
:100FA00000920022019200E1CA69012A08D18A69EF
:100FB000012A05D10A6A1AB9022200920192F4E0CC
:100FC0008A69012A08D1CA68012A05D10A681AB9B2
:100FD000002200920192E8E0CA68012A09D10A6859
:100FE000012A06D18A6922B90222009200220192C6
:100FF000DBE04A68012A09D10A69012A06D1CA69D7
:1010000022B90222009201220192CEE00A69012A4D
:1010100018D1CA69012A15D14A689AB900220092EA
:1010200001220192C1E000005C680400A8490000B0
:1010300055510100AF60030002590200097005001C
:101040000ABB0500CA68012A09D10A69012A06D12A
:101050004A6922B90122009202220192A5E00A699E
:10106000012A09D14A69012A06D1CA6822B9012296
:1010700000920022019298E00A68012A08D10A69C8
:10108000012A05D10A6A1AB90222009201928CE063
:101090000A69012A08D10A6A012A05D10A681AB91F
:1010A00000220092019280E08A68012A09D10A692F
:1010B000012A06D18A6922B90222009200220192F5
:1010C00073E00A69012A09D18A69012A06D18A686E
:1010D00022B9002200920222019266E00A68012AE7
:1010E00009D18A69012A06D1CA6822B9012200926F
:1010F0000022019259E08A69012A09D10A6A012A6B
:1011000006D1CA6922B902220092012201924CE062
:101110000A68012A09D18A68012A06D14A6822B9D7
:1011200000220092012201923FE08A68012A09D13F
:101130000A6A012A06D14A6922B9012200920222D2
:10114000019232E08A68012A08D18A69012A05D110
:101150000A691AB901220092019226E00A68012A5E
:1011600008D10A6A012A05D10A691AB90122009236
:1011700001921AE04A68012A08D1CA69012A05D1F8
:101180000A691AB90122009201920EE0CA68012A86
:1011900008D14A69012A05D10A691AB901220092C7
:1011A000019202E0032200920192DDE90023C0E9EE
:1011B00000230CBD0CB50A68022A09D14A68022A2C
:1011C00006D18A6822B9002200920222019223E10C
:1011D0004A68022A08D18A68022A05D10A681AB91F
:1011E00000220092019217E18A68022A08D14A6916
:1011F000022A05D10A6A1AB90222009201920BE171
:101200004A69022A09D10A6A022A06D18A6822B9E1
:101210000022009202220192FEE00A6A022A09D10B
:10122000CA69022A06D18A6922B9022200920022E2
:101230000192F1E0CA69022A08D18A69022A05D11D
:101240000A6A1AB9022200920192E5E08A69022A2A
:1012500008D1CA68022A05D10A681AB90022009288
:101260000192D9E0CA68022A09D10A68022A06D185
:101270008A6922B90222009200220192CCE04A68D7
:10128000022A09D10A69022A06D1CA6922B90222B0
:10129000009201220192BFE00A69022A09D1CA69BB
:1012A000022A06D14A6822B9002200920122019244
:1012B000B2E0CA68022A09D10A69022A06D14A693B
:1012C00022B90122009202220192A5E00A69022AB3
:1012D00009D14A69022A06D1CA6822B901220092BC
:1012E0000022019298E00A68022A08D10A69022ABB
:1012F00005D10A6A1AB90222009201928CE00A69A9
:10130000022A08D10A6A022A05D10A681AB90022FB
:101310000092019280E08A68022A09D10A69022AB1
:1013200006D18A6922B9022200920022019273E05A
:101330000A69022A09D18A69022A06D18A6822B971
:10134000002200920222019266E00A68022A09D174
:101350008A69022A06D1CA6822B9012200920022B3
:10136000019259E08A69022A09D10A6A022A06D141
:10137000CA6922B902220092012201924CE00A6855
:10138000022A09D18A68022A06D14A6822B90022B3
:101390000092012201923FE08A68022A09D10A6A7A
:1013A000022A06D14A6922B9012200920222019240
:1013B00032E08A68022A08D18A69022A05D10A69BC
:1013C0001AB901220092019226E00A68022A08D185
:1013D0000A6A022A05D10A691AB901220092019209
:1013E0001AE04A68022A08D1CA69022A05D10A69A4
:1013F0001AB90122009201920EE0CA68022A08D1AD
:101400004A69022A05D10A691AB901220092019299
:1014100002E0032200920192DDE90023C0E90023EB
:101420000CBD70B58CB001240125242101A802F067
:10143000AFFE4FF6FF7002F022FC4FF6FF7002F095
:101440001BFC002002F015FCFE480068022804D1B5
:1014500000BF0120FB49086007E0FA480068012846
:1014600003D102250220F74908605DE201F009FD81
:10147000202815D1072C01D0082C08D14FF6FF7079
:1014800002F0FDFB00BF01A8FFF75CFC3BE04FF65C
:10149000FF7002F0F4FBE41C01A8FFF753FC32E0FC
:1014A00001F0EFFC082815D1022C01D0032C08D143
:1014B0004FF6FF7002F0E3FB00BF01A8FFF742FC0C
:1014C00021E04FF6FF7002F0DAFBE41E01A8FFF7FF
:1014D00039FC18E001F0D5FC402808D14FF6FF7028
:1014E00002F0CDFB641E01A8FFF72CFC0BE001F01D
:1014F000C8FC102807D14FF6FF7002F0C0FB641C37
:1015000001A8FFF71FFC012C01DA012402E0092CDD
:1015100000DD0924012C08D1CB4850231A460021B4
:101520000090084602F0A9FC56E0022C08D1C648FB
:1015300050231A4600210090184602F09EFC4BE012
:10154000032C08D1C04850231A4600210090A02047
:1015500002F093FC40E0042C08D1BB4850231A460B
:1015600019460090002002F088FC35E0052C08D1D7
:10157000B54850231A4619460090184602F07DFCE3
:101580002AE0062C08D1B04850231A46194600908C
:10159000A02002F072FC1FE0072C08D1AA485023BB
:1015A0001A46A0210090002002F067FC14E0082CED
:1015B00008D1A54850231A46A0210090184602F0F1
:1015C0005CFC09E0092C07D19F4850231A46A02152
:1015D0000090084602F051FC01F053FC012811D1A3
:1015E000012C1ED101980028F9D1012D0BD197486B
:1015F00050231A4600210090084602F03EFC0120CC
:101600000190022511E1022DFCD1914850231A4688
:1016100000210090084602F030FC022001900125D4
:1016200003E1022C1ED102980028EBD1012D0BD131
:10163000864850231A4600210090184602F01DFCEF
:10164000012002900225F0E0022DDBD180485023DA
:101650001A4600210090184602F00FFC022002906A
:101660000125E2E0032C1ED103980028CAD1012DE8
:101670000BD1764850231A4600210090A02002F09A
:10168000FCFB012003900225CFE0022DBAD1704867
:1016900050231A4600210090A02002F0EEFB022009
:1016A00003900125C1E0042C1ED104980028A9D183
:1016B000012D0BD1654850231A4619460090002091
:1016C00002F0DBFB012004900225AEE0022D99D14F
:1016D0005F4850231A4619460090002002F0CDFBC7
:1016E000022004900125A0E0052C1ED105980028B9
:1016F00088D1012D0BD1554850231A461946009028
:10170000184602F0BAFB0121059102258DE0022D59
:101710000AD14F4850231A4619460090184602F045
:10172000ACFB0221059101257FE0062C1ED1069815
:1017300000287AD1012D0BD1444850231A4619466E
:101740000090A02002F099FB0121069102256CE097
:10175000022D6AD13E4850231A4619460090A02017
:1017600002F08BFB0221069101255EE0072C1DD1C2
:10177000079860BB012D0BD1344850231A46A02195
:101780000090002002F079FB0120079002254CE038
:10179000022D4AD12E4850231A46A0210090002045
:1017A00002F06BFB0220079001253EE0082C1DD1C2
:1017B000089860B9012D0BD1244850231A46A02166
:1017C0000090184602F059FB0121089102252CE0F7
:1017D000022D2AD11E4850231A46A02100901846F7
:1017E00002F04BFB0221089101251EE0092C1CD1BF
:1017F0000998D0B9012D0BD1144850231A46A021C5
:101800000090084602F039FB0121099102250CE005
:10181000022D0AD10E4850231A46A02100900846F6
:1018200002F02BFB0221099101252A4609A10AA8F1
:1018300002F00CFC08A301223021002002F0A9FADA
:101840000AAB0BE0380000100B060600097005001B
:101850000ABB050025640000502000000122312150
:10186000002002F096FAF9A301223321002002F0B1
:1018700090FAF7A301223321104602F08AFAF5A369
:1018800001223321022002F084FAF0A30122332145
:10189000032002F07EFAF0A301223321042002F09B
:1018A00078FAECA301223321052002F072FAE7A3B3
:1018B00001223321062002F06CFAE8A30122332131
:1018C000072002F066FAE6A301223321082002F085
:1018D00060FA01A8FFF76CFA0646012E0CD1E14828
:1018E000FEF7FCFE4FF6FF7002F0C9F9DE48006813
:1018F000401CDD49086018E0022E0CD1D948FEF7E3
:10190000EDFE4FF6FF7002F0BAF9D8480068401CAF
:10191000D649086009E03EB9D248FEF7DFFE4FF62F
:10192000FF7002F0ACF900E0A0E500BF5CE0012E22
:1019300006D1CFA301220021084602F02AFA0FE0C7
:10194000022E06D1CFA301220021084602F021FA7F
:1019500006E02EB9D0A301220021084602F019FAB0
:10196000D0A301220021022002F013FAD0A3012209
:101970000021032002F00DFAD2A30122002105204C
:1019800002F007FAB848AFF234110268D04802F00A
:101990005DFBD0A301220021062002F0FAF9CC4B16
:1019A00001220421062002F0F4F9B048AFF25C11E4
:1019B0000268CA4802F04AFBC9A30122002107209D
:1019C00002F0E7F9C54B01220421072002F0E1F9FA
:1019D00001F057FA402800D107E001F052FA01283F
:1019E00002D1FFF71EFD00E0A1E700BF0CB070BD03
:1019F0002DE9F0418EB00124A046242105A802F073
:101A0000C7FB4FF6FF7002F03AF94FF6FF7002F095
:101A100033F9002002F02DF9B3480068022804D100
:101A200000BF0120B049086008E0AF480068012805
:101A300004D14FF002080220AB49086099E2B8F1E6
:101A4000010F74D101F01DFA202815D1072C01D007
:101A5000082C08D14FF6FF7002F011F900BF05A85D
:101A6000FFF770F93BE04FF6FF7002F008F9E41C55
:101A700005A8FFF767F932E001F003FA082815D14D
:101A8000022C01D0032C08D14FF6FF7002F0F7F8BA
:101A900000BF05A8FFF756F921E04FF6FF7002F0EE
:101AA000EEF8E41E05A8FFF74DF918E001F0E9F99A
:101AB000402808D14FF6FF7002F0E1F8641E05A837
:101AC000FFF740F90BE001F0DCF9102807D14FF6E1
:101AD000FF7002F0D4F8641C05A8FFF733F9012C5D
:101AE00001DA012402E0092C00DD0924012C08D1CF
:101AF0007E4850231A4600210090084602F0BDF9A6
:101B000057E0022C08D1794850231A460021009052
:101B1000184602F0B2F94CE0032C09D17348502367
:101B20001A4600210090A02002F0A7F941E03BE115
:101B3000042C08D16D4850231A4619460090002005
:101B400002F09BF935E0052C08D1684850231A466D
:101B500019460090184602F090F92AE0062C08D1A8
:101B6000624850231A4619460090A02002F085F9D9
:101B70001FE0072C08D15D4850231A46A021009091
:101B8000002002F07AF914E0082C08D157485023BD
:101B90001A46A0210090184602F06FF909E0092CBE
:101BA00007D1524850231A46A0210090084602F05F
:101BB00064F901F066F9012810D1012C0FD10598C4
:101BC0000028F9D14A4850231A46002100900846BF
:101BD00002F053F9012005904FF002085FE1022C5A
:101BE0000FD106980028F9D1414850231A46002108
:101BF0000090184602F041F9012006904FF00208CB
:101C00004DE1032C0FD107980028E7D13848502325
:101C10001A4600210090A02002F02FF90120079021
:101C20004FF002083BE1042C64D108980028D5D17C
:101C30002F4850231A4619460090002002F01DF943
:101C4000012008904FF0020829E153E05400000001
:101C50004900000043000000410000004F00000068
:101C600045000000809698003000001034000010FD
:101C7000503120776F6E2074686520726F756E64C6
:101C80002E000000503220776F6E2074686520723D
:101C90006F756E642E0000004974277320612074F4
:101CA00069652E004C6566742D3E6D656E7500008D
:101CB00053656C6563742D3E706C6179206167615A
:101CC000696E000053636F7265733A200000000074
:101CD0005400001050313A20000000005C00001059
:101CE00050323A2000000000380000100B060600B9
:101CF00009700500052C0FD10998002892D1FE48E3
:101D000050231A4619460090184602F0B6F80121F1
:101D100009914FF00208C2E0062C0FD10A98002862
:101D200092D1F54850231A4619460090A02002F09F
:101D3000A4F801210A914FF00208B0E0072C0FD15E
:101D40000B9800280BD1EC4850231A46A021009094
:101D5000002002F092F801200B904FF002089EE064
:101D6000082C0FD10C9800280BD1E34850231A46B9
:101D7000A0210090184602F080F801210C914FF04C
:101D800002088CE0092C0ED10D9800280BD1DA48FE
:101D900050231A46A0210090084602F06EF8012157
:101DA0000D914FF002087AE0B8F1020F77D105A942
:101DB00001A8FFF7FFF905A903A8FFF7B5F80198F7
:101DC00003281BD00298032818D0CC480090019A11
:101DD00002EB82021101029A02EB820210015023EF
:101DE0001A4602F04AF80220019901EB410105AAC6
:101DF00002EB8101029A41F822004DE0039803288A
:101E00001BD00498032818D0BC480090039A02EB1A
:101E100082021101049A02EB8202100150231A4639
:101E200002F02BF80220039901EB410105AA02EB15
:101E30008101049A41F822002EE02BE0FEF79AF986
:101E4000032190FBF1F201FB1206FEF793F9032147
:101E500090FBF1F201FB120706EB460005A901EB2E
:101E6000800050F82700A8B9A44806EB86021101AB
:101E700007EB87020090100150231A4601F0FDFF86
:101E8000022006EB460105AA02EB810141F827007A
:101E900001E004E0D2E700BF4FF0010800BFAFF25D
:101EA000542301223321002001F073FFAFF260239D
:101EB00001223321104601F06CFFAFF268230122AA
:101EC0003321022001F065FFAFF28023012233218C
:101ED000032001F05EFFAFF28023012233210420B2
:101EE00001F057FFAFF2942301223321052001F0C6
:101EF00050FFAFF2A82301223321062001F049FF51
:101F0000AFF2A82301223321072001F042FFAFF2F4
:101F1000B02301223321082001F03BFF05A8FEF782
:101F200047FF0546012D0CD17548FEF7D7FB4FF64C
:101F3000FF7001F0A4FE73480068401C71490860FE
:101F400018E0022D0CD16E48FEF7C8FB4FF6FF706B
:101F500001F095FE6C480068401C6B49086009E080
:101F60003DB96748FEF7BAFB4FF6FF7001F087FEF8
:101F700000E064E500BF61E0012D06D163A301220A
:101F80000021084601F005FF10E0022D06D164A3F0
:101F900001220021084601F0FCFE07E035B9AFF24E
:101FA000083301220021084601F0F3FEAFF20C33A2
:101FB00001220021022001F0ECFEAFF20C330122DD
:101FC0000021032001F0E5FEAFF2083301220021D9
:101FD000052001F0DEFE4B48AFF2887102685548DB
:101FE00002F034F8AFF2143301220021062001F090
:101FF000D0FE504B01220421062001F0CAFE4248C7
:10200000AFF2B07102684C4802F020F84BA30122F5
:102010000021072001F0BDFE474B012204210720CB
:1020200001F0B7FE00F02DFF402800D107E000F0DE
:1020300028FF012802D1FFF7DBFC00E09CE700BF8E
:102040000EB0BDE8F08110B50124002001F017FEAC
:10205000002001F011FE9AE000F013FF202801D1CA
:10206000641C04E000F00DFF082800D1641E012C60
:1020700001DA012402E0022C00DD0224012C1ED131
:102080004FF6FF7001F0F5FD2DA301220021084657
:1020900001F07FFE4FF4784001F0EBFD2BA301220D
:1020A0000021022001F075FE4FF6FF7001F0E1FD06
:1020B0002AA301220021032001F06BFE1BE0022C69
:1020C00019D14FF6FF7001F0D4FD1DA301220021AC
:1020D000084601F05EFE1DA301220021022001F04E
:1020E00058FE4FF4784001F0C4FD1CA301220021EA
:1020F000032001F04EFE37E0097005000ABB050021
:10210000809698003000001034000010596F752040
:10211000776F6E2074686520726F756E642E000094
:10212000436F6D7020776F6E2074686520726F75D5
:102130006E642E00540000105C000010433A200032
:102140005469632054616320546F650053696E675E
:102150006C6520506C617965720000004D756C747F
:1021600069706C617965720000F08BFE012809D1FD
:10217000012C02D1FFF73CFC0AE0022C02D1FFF750
:1021800050F905E000F07DFE402800D100E063E753
:1021900000BF10BD0124002001F071FD002001F0FE
:1021A0006BFDEAE000F06DFE202801D1641C04E024
:1021B00000F067FE082800D1641E012C01DA01241A
:1021C00002E0032C00DD0324012C2ED14FF6FF701A
:1021D00001F04FFD75A301220021084601F0D9FD51
:1021E00077A301220021104601F0D3FD4FF478407F
:1021F00001F03FFD76A301220021042001F0C9FD7A
:102200004FF6FF7001F035FD744B012200210520CF
:1022100001F0BFFD4FF6FF7001F02BFD70A301220E
:102220000021062001F0B5FD60E0022C2ED14FF612
:10223000FF7001F01EFD5DA301220021084601F0A0
:10224000A8FD5FA301220021104601F0A2FD4FF678
:10225000FF7001F00EFD5EA301220021042001F0B9
:1022600098FD4FF4784001F004FD5C4B0122002101
:10227000052001F08EFD4FF6FF7001F0FAFC58A327
:1022800001220021062001F084FD2FE0032C2DD136
:102290004FF6FF7001F0EDFC44A301220021084637
:1022A00001F077FD46A301220021104601F071FDE7
:1022B0004FF6FF7001F0DDFC45A301220021042050
:1022C00001F067FD4FF6FF7001F0D3FC434B012294
:1022D0000021052001F05DFD4FF4784001F0C9FCBC
:1022E0003FA301220021062001F053FD00F0C9FDAB
:1022F000012842D1012C1ED1002001F0C0FC002099
:1023000001F0BAFC4FF6FF7001F0B3FC30A30122DC
:102310000021084601F03DFD33A3012200210420E5
:1023200001F037FDFEF787FA002001F0A8FC00203D
:1023300001F0A2FC21E0022C08D1FEF7D8FA00201F
:1023400001F09DFC002001F097FC16E0032C14D155
:10235000FFF779FE002001F092FC002001F08CFCD8
:1023600000202449086024490860244817A10978FE
:102370000170234815A10978017013E700F0C0FE31
:1023800000F094FD01F0E4F8002001F078FC4FF635
:10239000FF7001F06EFCFFF7FDFE00F01F0201214F
:1023A0009140184A430942F8231070474B61626913
:1023B0006C616E20566565726173696E67616D0050
:1023C0004D656469612043656E74657200000000AC
:1023D0004D503320506C6179657200002C0B000069
:1023E00047616D650000000053747265616D696E30
:1023F000670000003000001034000010540000108E
:102400005C00001080E100E001460A07D00E11F0E8
:10241000800F00D0401C70471021FE4A1160FE4919
:10242000C1F8100200BFFD49096811F0100FFAD081
:1024300070471022F74B1A60F74AC2F8100200BF2B
:10244000F64A126812F0100FFAD01022F14B1A60FF
:10245000F14AC2F8101200BFF04A126812F0100FD1
:10246000FAD0704710B504460B461020E9490860C1
:102470002046FFF7C9FF4FF4A06141EA0040E6495A
:10248000C1F8100200BFE548006810F0100FFAD044
:102490001020E0490860E048C0F8103200BFDF4873
:1024A000006810F0100FFAD010BD01463020D94A54
:1024B0001060D948C0F8101200BFD848006810F06A
:1024C000200FFAD0D6480068704710B5044644F093
:1024D00080004FF4807242EA0041D248FFF7A9FF22
:1024E00044F080004FF4807242EA0041CD48FFF78B
:1024F000A0FF10BD0021CC4A11604FF04001C64A38
:10250000C2F84C124FF00101C74A11604FF0400170
:10251000C14AC2F84C1200BFC049096811F4807F5B
:10252000FAD04FF0FF31C14A11606FF04001BA4A52
:10253000C2F834124FF0FF31B64A11604FF00D016E
:10254000A2F104021160BA49BA4A11604FF0FF319A
:10255000B94A1160B94A11604FF04001A2F104027A
:1025600011604FF0FF31B64A1160B64A1160B64AA9
:1025700011604FF00701B54A11604FF00001B44AF5
:1025800011605160084607E00021B24A42F820106D
:10259000B14A42F82010401C2028F5D3704700B5FE
:1025A000AE48406820F07050AC494860084640682A
:1025B00040F0A05048600846C068A9490840A749B3
:1025C000C8600846C068A7490843A449C8600846CF
:1025D000006920F4402008610846006940F480202A
:1025E0000861A148006840F00040A049C1F8C4005B
:1025F0004FF012009E49086000BF9E48006800F03E
:1026000012001228F9D118200121814042094FF00F
:10261000E02303EB8202C2F8001100BFFFF76AFF5C
:102620000020FFF752FF00BD10B504460CB1012099
:1026300000E000204FF4807242EA00418E48FFF72C
:10264000F8FE10BD7047704700B58C48007810F058
:10265000020F03D08A498848FFF7EBFE00BD7047A0
:1026600010B504460CB1012000E000204FF4807248
:1026700042EA00418348FFF7DCFE032082490860FC
:1026800000BF6648006810F4807FFAD04FF4807075
:102690006049086010BD10B503469878FFF7B4FE96
:1026A0000446794800684FF0010101FA04F140EA5C
:1026B00001005949C1F844025B4804609888C1F898
:1026C0004C0200BF5548006810F4807FFAD04FF4E8
:1026D00080705049086010BD704730B504462046F0
:1026E000FFF792FE694941EA004589132846FFF742
:1026F000A0FE30BD30B504462046FFF785FE634995
:1027000041EA004562492846FFF793FE30BD30B5E7
:1027100004462046FFF778FE5C4941EA00458913EC
:102720002846FFF786FE30BD30B504462046FFF749
:102730006BFE564941EA004551492846FFF779FEAC
:1027400030BD30B504462046FFF75EFE4F4941EAF2
:10275000004589132846FFF76CFE30BD10B50446CE
:102760004C492046FFF77EFE10BDF0B505460F46EA
:1027700005F00F00012101EB80004749086000BF10
:102780004648046814F4006FFAD0C4F30904002624
:1027900005E02148D0F8180238603F1D761CE01C87
:1027A000B6EB900FF5D300203B49086041F248207A
:1027B00040FA05F010F0010F03D136492846FFF723
:1027C00051FE2046F0BDF0B506460D46144606F013
:1027D0000F00022101EB80002F4908600E48C0F86D
:1027E00024424FF0000706E028682D49086005F1F3
:1027F000040507F1010704F10300B7EB900FF3D3D1
:1028000000202549086027493046FFF72BFE204667
:10281000F0BD000008C2005000C0005000C20050CF
:1028200014C200500005D00048C2005038C2005009
:102830000000082080C2005054C200508CC20050DA
:10284000A4C20050B0C20050BCC2005094C200509C
:1028500064000010D40000100000082000C00240F6
:10286000CFFFFFCF10000020C4C00F4000C00F40BA
:10287000F4CF0050F8CF00500005FE00000000101B
:10288000000101000005D80044C2005000054000CE
:10289000000120000005F20028C2005020C20050B4
:1028A0001CC200500005FA002DE9F04381460C4699
:1028B000207BC0F340054846FFF7A6FD8046002771
:1028C000E64850F8283017E01F46207B10F0010F33
:1028D00011D1E34850F82500381AE24951F8251083
:1028E000B0FBF1F6E04850F825000121B1408843E3
:1028F000DD4941F825003B68002BE5D1002608E0C2
:10290000D94850F825100120B040014200D102E022
:10291000761C202EF4D300BF202E02D10020BDE86B
:10292000F083D14850F825100120B0400143CE4833
:1029300040F82510CA4850F82500CA4951F825101A
:1029400006FB01034FB1207B10F0010F05D03B6067
:10295000786840F00400786005E0C04840F828300E
:10296000C24840F82830002001C3207BC0F380001B
:10297000217BC1F3400140EA0110E18840EA4110A7
:10298000A18840EA014001C3206801C3A089C0F3C7
:102990000720000201C30DB1A06818600120BEE746
:1029A00000B503461846FFF72FFD01218140B048CE
:1029B000016000BD00B503461846FFF725FD012163
:1029C0008140AC48016000BD70B506463046FFF757
:1029D0001BFDA64951F820400CB9002070BDE568E8
:1029E000C5F343000A2812D2DFE800F00507090BFF
:1029F000111111110D0F0120F0E70220EEE7032065
:102A0000ECE70520EAE70420E8E70620E6E74FF6D2
:102A1000FF70E3E730B505462846FFF7F5FC93491C
:102A200051F8203013B94FF0FF3030BD9C6820467C
:102A3000FBE730B505462846FFF7E6FC8B4951F821
:102A4000203013B94FF0FF3030BDDC68200CFBE7BD
:102A500000B58948FFF7E0FC8848FFF726FD0346EC
:102A60008648FFF722FD43EA0023184600BD2DE902
:102A7000F0478348076817F0080F1CD008208149E9
:102A800008608148FFF7C8FC8048FFF70EFD064646
:102A900016F0100F03D0FFF72DFDFDF785FB16F0A4
:102AA000080F07D016F0040F02D0FFF7CBFD01E0AE
:102AB000FFF7C9FDD0E017F0010F01D0FDF778FB5B
:102AC00017F0040F49D04FF000097148D0F8308258
:102AD00000243CE0C84500D13BE00120A04010EAC2
:102AE000080F32D00120A04040EA09096508012002
:102AF000A0406849086000BF6148006810F0200FDE
:102B0000FAD06548066814F0010F15D154B916F0D3
:102B1000040F07D06148006820B1604801680120B7
:102B2000884713E05D4850F8250070B15B4850F8C5
:102B300025100220884708E0584850F8250020B1A9
:102B4000564850F825100320884700BF641C202CED
:102B5000C0D300BF04204B4908605148006810F002
:102B6000010F24D04F4806684FF002041BE00120FB
:102B7000A040304216D0650814F0010F09D1474833
:102B800050F8250070B1454850F8251008208847B6
:102B900008E0424850F8250020B1404850F8251080
:102BA00009208847641C202CE1D33F4806603C483C
:102BB000006810F0020F24D03C4806684FF0020471
:102BC0001BE00120A040304216D0650814F0010F30
:102BD00009D1324850F8250070B1304850F825101E
:102BE0000A20884708E02D4850F8250020B12B48DE
:102BF00050F825100B208847641C202CE1D32C486A
:102C000006602748006810F0040F24D029480668A1
:102C10004FF002041BE00120A040304216D06508AE
:102C200014F0010F09D11D4850F8250070B11B4860
:102C300050F825100C20884708E0184850F8250067
:102C400020B1164850F825100D208847641C202C10
:102C5000E1D31948066000BFBDE8F087D40000103A
:102C60003C7B0600447B0600640000100000082046
:102C700088C200508CC200500005F5000002F5002B
:102C800000C2005008C200500005FE000002FE0015
:102C900000C0005038C2005014C2005084480000E8
:102CA00090C20050A0C20050A4C20050ACC200505C
:102CB000B0C20050B8C20050BCC200503548808835
:102CC000B0F5007F38D13348807890BB3148C07868
:102CD000012802D002282ED10AE02E48407881280F
:102CE00005D12D4800782D4908700120704722E059
:102CF00028484078812806D082280AD083280DD021
:102D0000842817D110E02648008824490880012033
:102D1000ECE70020214908800120E7E74FF48070AC
:102D20001E4908800120E1E704201C490880012099
:102D3000DCE701E000BF00BF0020D7E7154880882E
:102D4000B0F5007F20D113488078E8B91148C078E9
:102D5000012802D0022816D10AE00E484078012846
:102D600005D10E4800780C490870012070470AE030
:102D700008484078012805D108480088084908809B
:102D80000120F3E700BF00BF0020EFE700207047FD
:102D900000207047200000103C000010940000103C
:102DA0006C0000102248006840F410402149C1F82E
:102DB000C4002148406820F440201F49486008466C
:102DC000406840F4802048600846406C20F4402071
:102DD00048640846406C40F400204864174818498D
:102DE000886370471648806B20F0E0601449886360
:102DF0000846806B40F08070886370471048806B95
:102E000020F0E0600E498863704700BF0C48C06B3B
:102E100010F0004FFAD00A48C06BC0F30B100949FC
:102E200008800120084908700648008870470000A3
:102E3000C4C00F4000C00F4000C002400404200086
:102E400000400340700000106E000010124800683F
:102E500040F400401149C1F8C4001148C06811494C
:102E600000EA01000E49C8600F48006A20F0F260D5
:102E70000D49086270470C49496B792202EA1150EA
:102E8000704700B50023FFF7F6FF0346792020EADC
:102E90000303184600BD0000C4C00F4000C00F402F
:102EA00000C00240FF3CC0FF00C009202648006867
:102EB00040F400402549C1F8C4002548006A40F0AC
:102EC0003040234908620846006C40F07C000864EA
:102ED0007047032808D21E49496B1E4A52F8202029
:102EE00011431B4A516307E01949496D194A52F8C9
:102EF00020201143164A51657047032808D214490F
:102F0000496B144A52F820209143114A516307E05B
:102F10000F49496D0F4A52F8202091430C4A5165E0
:102F2000704710B5044600230BE001209840204272
:102F300003D01846FFF7CDFF02E01846FFF7DDFF8C
:102F40005B1C082BF1DB10BDC4C00F4000C00F405C
:102F500000C009204C7B06002DE9F047F9480068C5
:102F6000C0F3016003287CD1F748006810F003002B
:102F700006D0012833D002285FD003282ED100E0EC
:102F800000BFF0480068C0F3074000F101044FF0B3
:102F90000201EE48D0F88800C0F30E0000F10100F5
:102FA000A1FB0001EA4B4FF0000CA0FB037901FBF1
:102FB000039100FB0C1122466346384600F0CEFF19
:102FC0000546E4480068C0B200F1010422464FF013
:102FD0000003284600F0C2FFDF4908605DE0D948E1
:102FE0000068C0F3074000F101044FF00201D74828
:102FF000D0F88800C0F30E0000F10100A1FB001022
:10300000D64A4FF0000CA1FB027900FB029001FBB5
:103010000C0122466346384600F0A0FF0546CD4825
:103020000068C0B200F1010422464FF000032846B8
:1030300000F094FFC84908602FE0C2480068C0F360
:10304000074000F101044FF00201C048D0F88800A9
:10305000C0F30E0000F10100A1FB00124FF400408C
:1030600000E01BE04FF00003A1FB007902FB0090A1
:1030700001FB03012246384600F070FF0546B548C3
:103080000068C0B200F1010422464FF00003284658
:1030900000F064FFB049086000BF2FE0AA48006854
:1030A00010F0030006D0012810D0022819D0032800
:1030B00023D100E000BFA7480068C0B200F10100C2
:1030C000A349B1FBF0F0A449086016E0A1480068EC
:1030D000C0B200F10100A149B1FBF0F09E490860C7
:1030E0000BE09C480068C0B200F101004FF40041C1
:1030F000B1FBF0F09849086000BF00BFBDE8F08761
:103100002020974908609148D0F8A00110F0200FC6
:1031100005D000BF9248006810F0400FFAD003209D
:103120008C4908604FF000008849C1F8A8018D491A
:1031300008604FF00100844908608B488B490860A3
:103140004FF0AA008A4908604FF0550008604FF020
:103150000100884908604FF0AA00854908604FF0D7
:1031600055007A49C1F88C0000BF7648006810F01D
:10317000806FFAD003207F4908604FF0AA0073499E
:10318000C1F88C004FF055007949086000BF6D48C8
:10319000006800F04070B0F1407FF8D123207649FC
:1031A00008604FF0AA006949C1F8AC004FF0550023
:1031B000724908604FF00100714908604FF0AA00A1
:1031C0006E4908604FF055006049C1F8AC0000BF7F
:1031D0006C48006810F4806FFAD0032068490860DA
:1031E0004FF0AA005949C1F8AC004FF055006349AF
:1031F000086000BF6348006800F44070B0F5407F8D
:10320000F8D16148614908604FF000004F49C1F8AA
:10321000C8010846006820F4704040F4804008600F
:10322000704748480068C0F30160032866D14648EB
:10323000006810F0030006D0012823D002283FD0F8
:1032400003285AD100E000BF3E480068C0F30E00DA
:1032500000F101004FEA40013C48D0F88800C0F37B
:10326000074000F10100B1FBF0F0394900FB01F02B
:1032700038490968C9B201F10101B0FBF1F04449D4
:1032800008603AE02F480068C0F30E0000F101002A
:103290004FEA40012D48D0F88800C0F3074000F104
:1032A0000100B1FBF0F02D4900FB01F0294909684C
:1032B000C9B201F10101B0FBF1F0354908601CE031
:1032C00020480068C0F30E0000F101004FEA400101
:1032D0001E48D0F88800C0F3074000F10100B1FBA0
:1032E000F0F04FEAC0311B480068C0B200F10100A5
:1032F000B1FBF0F02649086000BF58E012480068B2
:1033000010F0030006D0012810D0022842D0032874
:103310004CD100E000BF0F480068C0B200F10100CE
:103320000B49B1FBF0F01A4908603FE0094800681A
:10333000C0B200F101000949B1FBF0F01449086086
:1033400034E0000088C00F400CC10F4000C00F40A7
:1033500000093D0004C10F4084000010001BB700AD
:10336000A0C10F40ACC10F406300050084C00F40F6
:103370008CC00F4080C00F40A4C00F40ACC00F40B5
:10338000A0C00F40A8C00F40DE872804C4C00F4073
:103390008800001006480068C0B200F101004FF438
:1033A0000041B1FBF0F00349086000BF00BF704767
:1033B00004C10F4088000010800400BF0100A0F18C
:1033C0000100FBD170472DE9F04106460D4600276C
:1033D000012D06D1FE48006840F40070FC490860E9
:1033E00005E0FB48006820F40070F94908600724F4
:1033F00022E08020F649C8610120FFF7DDFF012DA2
:103400000CD10120A040304203D06802F04988610D
:103410000BE04FF40070EE49C86106E0EC484069EB
:10342000C0F34020A0403843C7B28020E8498861FB
:103430000120FFF7C1FF641E002CDADA3846BDE830
:10344000F08110B504464020E149C861702000F0C9
:103450004CFD002000F049FD204600F046FD4020D4
:10346000DB49886110BD10B504464020D849C861C9
:10347000722000F03AFD201200F037FDE0B200F0BB
:1034800034FD4020D249886110BD70B505462846FC
:10349000FFF7D7FF00BF00244020CD49C86173204B
:1034A00000F023FD002000F020FD002000F01DFDB5
:1034B00004464FF6FF7000EA0424002000F015FDDA
:1034C00004434020C2498861204670BD10B5C14800
:1034D000006820F47C20BF4908600846006C40F476
:1034E0002A200864BA48006840F08000B8490860A3
:1034F00040208861802088614020C86101217020BF
:10350000FFF761FF01210020FFF75DFF4020B04978
:103510008861C86101217320FFF755FF002108462B
:10352000FFF751FF04464020A9498861084600681A
:1035300020F080000860A748006840F42820A549D2
:1035400008600846006C20F47F200864204610BD07
:1035500010B5A148006840F48060A049C1F8C400DB
:103560000846D0F8A80140F40010C1F8A801994815
:10357000406A20F07060974948629548D0F8800012
:1035800040F04050964908604FF000509049C1F813
:1035900098000846006840F0400008604FF0400086
:1035A00088618C48006820F47C208A4908600846BD
:1035B000006840F42820086040F2C710894908607C
:1035C0004FF0020008614860FFF780FF04461CB915
:1035D0000020FFF75AFF0446472C7DD10120824985
:1035E00008700021EA2000F0A2FC2021EB2000F06E
:1035F0009EFC0C21EC2000F09AFCC721ED2000F08D
:1036000096FC3821E82000F092FC1021E92000F01F
:103610008EFC0121F12000F08AFC1021F22000F044
:1036200086FC0121402000F082FC0021412000F0B6
:103630007EFC0021422000F07AFC1021432000F0A3
:1036400076FC0E21442000F072FC2421452000F07D
:103650006EFC0421462000F06AFC5021472000F057
:1036600066FC0221482000F062FC1321492000F092
:103670005EFC19214A2000F05AFC19214B2000F071
:1036800056FC16214C2000F052FC1B21502000F06B
:103690004EFC3121512000F04AFC2F21522000F035
:1036A00046FC3F21532000F042FC3F21542000F013
:1036B0003EFC3E21552000F03AFC2F21562000F020
:1036C00036FC7B21572000F032FC0921582000F005
:1036D0002EFC0621592000E098E000F028FC06218D
:1036E0005A2000F024FC0C215B2000F020FC1D215E
:1036F0005C2000F01CFCCC215D2000F018FC1B219C
:10370000084600F014FC01211A2000F010FC2F21C3
:10371000242000F00CFC5721252000F008FC882113
:10372000232000F004FC3621182000F000FC0121C9
:10373000192000F0FCFB0021012000F0F8FB88219B
:103740001F2000F0F4FB1420FFF736FE82211F201B
:1037500000F0EDFB0520FFF72FFE92211F2000F067
:10376000E6FB0520FFF728FED2211F2000F0DFFB3B
:103770000520FFF721FE5521172000F0D8FB00217E
:10378000084600F0D4FB11212F2000F0D0FB0021CF
:10379000312000F0CCFB0021322000F0C8FB3821A2
:1037A000282000F0C4FB1420FFF706FE3C2128204F
:1037B00000F0BDFBA821162000F0B9FB00210E206F
:1037C00000F0B5FB00210F2000F0B1FB01210DE05E
:1037D00000C0092000C00240C4C00F4000C00F401C
:1037E00080C009200000034090000010102000F06D
:1037F0009EFB4021112000F09AFB0021122000F0D6
:1038000096FB0021132000F092FB91E10020F94982
:1038100008704FF48071012000F089FB4FF4E061E3
:10382000022000F084FB0021042000F080FB40F225
:103830000721082000F07BFB0021092000F077FB26
:1038400000210A2000F073FB00210C2000F06FFB28
:1038500000210D2000F06BFB00210F2000F067FB22
:103860000021102000F063FB0021112000F05FFB1D
:103870000021122000F05BFB0021132000F057FB19
:103880001420FFF799FD41F2B021102000F04FFB0A
:103890000721112000F04BFB0520FFF78DFD40F2C2
:1038A000BD11122000F043FB0520FFF785FD4FF40A
:1038B000A051132000F03BFB0E21292000F037FB24
:1038C0000520FFF779FD0021202000F030FB0021CA
:1038D000212000F02CFBA4F5A840083806D0A0F564
:1038E0007C5018387ED005287DD150E040F60D314F
:1038F000302000F01CFB41F62311312000F017FBB3
:1039000041F62641322000F012FB42F21C613320C6
:1039100000F00DFB42F21941342000F008FB40F6A4
:103920000B51352000F003FB41F20601362000F078
:10393000FEFA4FF4C261372000F0F9FA40F2067146
:10394000382000F0F4FA4FF44171392000F0EFFA1A
:1039500040F605613A2000F0EAFA40F601613B20AA
:1039600000F0E5FA4FF487713C2000F0E0FA40F2F5
:103970000E513D2000F0DBFA40F203413E2000F002
:10398000D6FA40F207613F2000F0D1FA61E0002151
:10399000302000F0CCFA40F20761312000F0C7FA85
:1039A00040F20531322000F0C2FA0021352000F04B
:1039B000BEFA41F20461362000F0B9FA4FF4017109
:1039C000372000F0B4FA0121382000F0B0FA40F2BC
:1039D0000771392000F0ABFA00213C2000F0A7FA73
:1039E0000F2101E005E003E03D2000F0A0FA30E007
:1039F00000BF0621302000F09AFA40F20111312078
:103A000000F095FA0321322000F091FA4FF483710F
:103A1000352000F08CFA40F60231362000F087FAAB
:103A200040F20231372000F082FA40F2077138206C
:103A300000F07DFA0721392000F079FA4FF4C061D7
:103A40003C2000F074FA40F20B213D2000F06FFAA8
:103A500000BF00BF0021502000F069FAEF21512083
:103A600000F065FA0021522000F061FA40F23F11A7
:103A7000532000F05CFAA4F5A840083806D0A0F561
:103A80007C5018380AD0052807D100E000BF4FF459
:103A90001C51602000F04BFA06E000BF4FF42741B4
:103AA000602000F044FA00BF00BF0121612000F057
:103AB0003EFA00216A2000F03AFA0021802000F04E
:103AC00036FA0021812000F032FA0021822000F035
:103AD0002EFA0021832000F02AFA0021842000F031
:103AE00026FA0021852000F022FA1021902000F013
:103AF0001EFA0021922000F01AFA0321932000F010
:103B000016FA4FF48871952000F011FA00219720E1
:103B100000F00DFA0021982000F009FA41F2380176
:103B2000032000F004FA40F23711072000F0FFF9FB
:103B30004FF080503049086010BD2DE9F047044631
:103B40000D4616461F462B48007860B3A019A0F119
:103B50000108E819A0F10109C4F30F21022000F0C7
:103B6000E6F9E1B2032000F0E2F9C8F30F210420E6
:103B700000F0DDF908F0FF01052000F0D8F9C5F3E9
:103B80000F21062000F0D3F9E9B2072000F0CFF9A9
:103B9000C9F30F21082000F0CAF909F0FF0109203C
:103BA00000F0C5F91BE0A9B2502000F0C0F9E819F7
:103BB000401E81B2512000F0BAF9A1B2522000F0AB
:103BC000B6F9A019401E81B2532000F0B0F9A9B295
:103BD000202000F0ACF9A1B2212000F0A8F9BDE846
:103BE000F08710B5F0234FF4A07200210846FFF7CC
:103BF000A4FF10BD9000001098C0092070B50446C5
:103C00000D46D048007820B3C4F30F21022000F005
:103C10008EF9E1B2032000F08AF9C4F30F210420E9
:103C200000F085F9E1B2052000F081F9C5F30F211C
:103C3000062000F07CF9E9B2072000F078F9C5F31E
:103C40000F21082000F073F9E9B2092000F06FF9A4
:103C500007E0A9B2202000F06AF9A1B2212000F00B
:103C600066F92220FFF7EDFBB7494888FFF7FBFB19
:103C700070BDB54948807047B3490880704770B53A
:103C80000546FFF7AEFF2220FFF7DBFB00F03AF915
:103C9000002403E0284600F041F9641CB4F5963F87
:103CA000F8D300F037F970BD2DE9FF5F8346164663
:103CB00099460E9F4B46324658460199FFF73DFF05
:103CC0002220FFF7BEFB00F01DF9F01D4FEAD00ADD
:103CD000BAF1010F16D1002511E097F800807F1C82
:103CE000002409E028FA04F101F00101964A32F8B3
:103CF000110000F013F9641CB442F3D36D1C4D4560
:103D0000EBD318E0BAF1020F15D1002511E0B7F896
:103D10000080BF1C002409E028FA04F101F0010131
:103D2000894A32F8110000F0F9F8641CB442F3D368
:103D30006D1C4D45EBD300F0EDF8BDE8FF9FF8B5E5
:103D400005460E4617461C46A4F12000C4B217B122
:103D5000012F1CD10CE07D4800EBC400E90006EB0C
:103D600046020090500008230622FFF79DFF0EE058
:103D700004EB4400764901EB001005EB4502D1004D
:103D80000090300118231022FFF78EFF00BF00BF04
:103D9000F8BD2DE9F04106460D4617461C4607E0E2
:103DA00014F8013B29466D1C3A463046FFF7C7FF21
:103DB00020780028F4D1BDE8F08170B590B00646B7
:103DC0000D46FFF70EFF15B1012D1CD10DE00024AB
:103DD00004E0202001A90855601CC4B2362CF8DB91
:103DE000002101AA601C11540DE0002404E02020F1
:103DF00001A90855601CC4B2142CF8DB002101AAEB
:103E0000601C115400BF00BF01AB2A4600213046A0
:103E1000FFF7BFFF10B070BD2DE9F04781468A461D
:103E200014461E46089F07FB04F0870A33462246C5
:103E300051464846FFF781FE2220FFF702FB00F0C3
:103E400061F84FF0000812E000250BE0BD4204D3FA
:103E50003D49088800F062F803E03B49488800F0DB
:103E60005DF86D1C601EA842F0D208F10108B04553
:103E7000EAD300F04FF8BDE8F0872DE9F05F804607
:103E8000894614461F46DDF828A0D3463B46224605
:103E900049464046FFF751FE2220FFF7D2FA00F0D4
:103EA00031F8781E00FB04F50AE0002605E0A919A8
:103EB0003BF8110000F032F8761CA642F7D32D1B18
:103EC000002DF2DA00F026F8BDE8F09F704710B53B
:103ED00004462046FFF7B5FA10BD70B504460D46FE
:103EE0002946204600F023F870BD0146194881603C
:103EF00000BF1848C06810F0040FFAD01548806859
:103F0000C0B2704710B540201349C8617220FFF756
:103F1000ECFF10BD402010498861704710B5044681
:103F20002012FFF7E2FFE0B2FFF7DFFF10BD70B530
:103F300005460C462846FFF784FA2046FFF793FA19
:103F400070BD0000900000108C0000106C7B06001B
:103F5000EC7E06000000034000C0092053EA020C7A
:103F600000F069802DE9F04B4FF00006002B1FBFD9
:103F7000B3FA83F503FA05F424FA05F65E4012BF9E
:103F80001643B2FA82F502FA05F4C5F120051EBF08
:103F900022FA05FC44EA0C04203556EA044C4FEAA8
:103FA000144418BF641C4FF000084FF00009904201
:103FB00071EB030C39D3002919BFB1FA81F701FA6B
:103FC00007F6B0FA80F700FA07F6C7F120071EBF20
:103FD00020FA07FC46EA0C062037B6FBF4FCA7EBF8
:103FE0000507103F07F01F0BCBF120060CFA0BFB67
:103FF0002CFA06F644BFB3460026202FA4BF5E4627
:104000004FF0000B5BEA060C08BF4FF0010B19EBF9
:104010000B09ABFB027C48EB0608C01B06FB02CC7D
:104020000BFB03CC71EB0C01C1E70B46024641468A
:104030004846BDE8F08B13B54FF000004FF000018B
:10404000AFF30080BDE81C40704700000FB41CB502
:10405000074B06AA7B4469460090059800F021F9B9
:104060000020694600F030F91CBC5DF814FB00002C
:10407000710200002DE9F0410E4604460020206246
:104080002046E168884730B3252805D0D4E90121CE
:104090009047206A401CF2E7E168204600278847E5
:1040A000050018D0A5F14100192802D820354FF499
:1040B00000673246294620462760FCF741F840B1A8
:1040C000012804D0F61D26F007060836D8E7361D6D
:1040D000D6E72846DAE7206ABDE8F0812DE9F0410D
:1040E0000646002410687529314616A511D0AFF395
:1040F0000080002803DAC0F1000013A507E0316852
:104100008A0701D511A502E0490704D510A50124AD
:1041100001E0AFF3008000210A2306F1240707E045
:10412000B0FBF3F203FB1200303078541046491C08
:104130000028F5D123462A463046BDE8F04100F07C
:104140004EB80000000000002D0000002B00000011
:10415000200000000B4910B5A1F17C020A4CC2E915
:104160003712372106E000EB104342F82130074BAD
:1041700000FB03400B1EA1F10101F4DC10BD012086
:10418000E8E70000D0010010E119D666CD0D01006E
:104190004FF0000200B5134694469646203922BFE0
:1041A000A0E80C50A0E80C50B1F12001BFF4F7AF2B
:1041B000090728BFA0E80C5048BF0CC05DF804EB0D
:1041C000890028BF40F8042B08BF704748BF20F87B
:1041D000022B11F0804F18BF00F8012B70472DE91A
:1041E000F0470D4699469246044600F124080168BE
:1041F000880604D5E06921F01001216000E001206B
:10420000A84202DDA0EB050700E00027A16907EB4B
:10421000050202EB0900A1EB0000A0612078C006B6
:1042200002D42046AFF30080002608E0D4E9012143
:104230001AF806009047206A401C761C20624E4502
:10424000F4DB2078C0060AD52046AFF3008006E0F4
:10425000D4E9012130209047206A401C2062381E9A
:10426000A7F10107F4DC07E0D4E9012118F8050003
:104270009047206A401C2062281EA5F10105F3DC4E
:104280002046AFF300802078000602D50220BDE86A
:10429000F0870120FBE7000001694A1C02610878F1
:1042A000704700B58FB0CDE9013100210591054976
:1042B0007944CDE9031011466846FFF7DBFE0FB0E5
:1042C00000BD0000E5FFFFFF0A6802F8010B0A606D
:1042D0007047754600F028F8AE460500694653461B
:1042E00020F00700854618B020B5FBF7F1FFBDE8C8
:1042F00020404FF000064FF000074FF000084FF04D
:10430000000B21F00701AC46ACE8C009ACE8C009DD
:10431000ACE8C009ACE8C0098D4670470446AFF36D
:1043200000802046FBF720FF00487047380200104D
:1043300001491820ABBEFEE72600020010B5284850
:10434000007810F01F0002D001283ED13AE0244846
:10435000C078012804D0022807D003282ED118E005
:104360002048214C206012232AE02049002204E04A
:10437000087808B148880144521C19488078904256
:10438000F6D1087808B9002010BD174801604B88A5
:1043900016E01749002204E0087808B108780144C3
:1043A000521C0F4880789042F6D1087808B9002056
:1043B000EAE70D4801600068037801E00020E3E7C8
:1043C00000BF04E000BF0020DEE70020DCE700BF04
:1043D00005488088984201D9034CA3800120D3E787
:1043E00020000010C448000018000010D64800004B
:1043F000444900002748007810F01F0004D001282D
:1044000006D0022841D116E02348244B18603EE034
:104410002348007860B11F480079224B1B789842EE
:1044200006DA0020204B188018461C4B186001E06B
:10443000002070472BE01748007900F08F0111F041
:10444000800F05D001F00F034FF48030984001E059
:104450000120884002461248007810B911F00F0F71
:1044600010D11248006810420CD011480068104268
:1044700001D0012000E000200B4B18801846074BAC
:10448000186001E00020D4E701E00020D1E700BF80
:104490000120CEE7200000100000001018000010DE
:1044A0000300001010000010940000100400001021
:1044B0000800001070B506463348007810F01F0061
:1044C00004D001281DD0022858D11CE02E48408875
:1044D000012813D146B1FEF7C2F82C48008840F0FD
:1044E00002002A4908800BE00020FEF7B8F82748B0
:1044F000008820F002002549088001E0002070BDFE
:104500003EE00020FBE72048007900F08F0414F023
:10451000800F05D004F00F014FF48030884001E097
:104520000120A04005461A48007820B314F00F0F70
:1045300021D01848006828421DD013484088C0B9CF
:1045400046B12046FEF7F0F81348006828431249A8
:10455000086012E011480068284201D00120CEE72F
:104560002046FEF7EEF80C480068A8430A490860A8
:1045700003E00020C3E70020C1E701E00020BEE720
:1045800000BF0120BBE70000200000100000001069
:104590000300001004000010080000100C000010C0
:1045A0002DE9F04100266248007810F01F0F7DD100
:1045B0005F48807800287AD05E4D7EE068780228D7
:1045C00004D0042851D0052873D150E068795849A7
:1045D0008978884245D156488078574908702879AB
:1045E00056490870002403E0002055490855641C12
:1045F000042CF9D3012414E00120A040514909689A
:10460000084202D02046FEF775F84FF48030A040F3
:104610004C490968084203D044F08000FEF76AF86C
:10462000641C102CE8D34FF00110464908600020AC
:1046300045490860454908600120FEF711F8E8790E
:1046400010F0400F06D04248008840F00100404979
:10465000088009E03E48008820F001003C490880BD
:1046600002E06888054428E023E0EE7821E0E6B91E
:10467000A87800F08F0414F0800F05D004F00F012B
:104680004FF48030884001E00120A04007462D48CB
:10469000006838432B4908602846FDF7FCFF204698
:1046A000FEF71BF82046FEF732F801E03BE009E098
:1046B00000BF00BF2878054400BF287800287FF499
:1046C0007DAF26E000201C490870012414E0012081
:1046D000A0401C490968084202D02046FEF70AF8AB
:1046E0004FF48030A04017490968084203D044F0D5
:1046F0008000FDF7FFFF641C102CE8D34FF0011081
:104700001049086000201049086010490860FDF752
:10471000A7FF0748807808490978884202D000201E
:10472000BDE8F08101E00020FAE700BF0120F7E7D3
:1047300020000010D64800000300001010000010F8
:104740001100001004000010080000100C00001000
:10475000000000102DE9F05F0027B846BB46B946BF
:104760004248007800F01F00012879D140480078C5
:1047700010B90020BDE8F09F4FF0000A3D4C6AE000
:104780006078022804D004280BD005285FD11EE0F1
:10479000607937490978884202D0608804445AE039
:1047A00055E0A77894F803804FF000092F4800796E
:1047B000B8420BD12D488078404507D14FF0010A0F
:1047C0002D4810F807B0014601F807803FE0274860
:1047D0000079B8423AD1A07800F08F0616F0800F29
:1047E00005D006F00F014FF48030884001E0012031
:1047F000B04005461D488078404515D11F480068E7
:1048000028431E4908601E480068A8431C490860E8
:104810002046FDF740FF3046FDF75FFF3046FDF7CD
:1048200076FF49EA050911E0D8450FD119EA050FCD
:104830000CD112480068A84310490860104800686D
:10484000A8430F4908603046FDF754FF00BF00BF82
:104850002078044400BF2078002891D102E0FFE7CF
:10486000002087E700BF504684E7000020000010CA
:1048700003000010D64800001100001004000010D2
:10488000080000109F03000000000000000000006E
:10489000B701000000000000000000000000000060
:1048A0000000000000000000000000000000000008
:1048B00000000000000000000000000000000000F8
:1048C000000000001201000200000040C91F024069
:1048D00000010102030109026D000201008032099A
:1048E000040000000101000009240100012700016B
:1048F000010C24020101010001000000000924064E
:10490000020101030000092403030103000200095E
:10491000040100000102000009040101010102007C
:1049200000072401010101000B2402010102100112
:10493000007D00090503014000010000072501007A
:1049400000000000040309041C034E00580050003E
:104950002000530065006D00690063006F006E0069
:10496000640020002A034E005800500020004C0034
:1049700050004300310037007800780020005300D9
:104980007000650061006B006500720020001A0372
:10499000440045004D004F00300030003000300032
:1049A0003000300030003000FFFFFFFFFFFFFFFF4F
:1049B000FFFFFFFFFFFFFFFFFFFFFFFFFFFFFFFF07
:1049C000FFFFFFFFFFFFFFFFFFFFFFFFFFFFFFFFF7
:1049D000FFFFFFFFFFFFFFFFFFFFFFFFFFFFFFFFE7
:1049E000FFFFFFFFFFFFFFFFFFFFFFFFFFFFFFFFD7
:106E7000FFFFBEF73CE7FBDEBAD61CE75DEFDFFFA6
:106E8000FFFFFFFFFFFFFFFFFFFFFFFFFFFFFFFF12
:106E9000FFFFFFFFFFFFFFFFFFFFFFFFFFFFFFFF02
:106EA000FFFFFFFFFFFFFFFFFFFFDFFF5DEF3CE79F
:106EB0001CE73CE77DEFDFFFFFFFFFFFFFFFFFFF6A
:106EC000FFFFFFFFFFFFFFFFFFFFFFFFFFFFFFFFD2
:106ED000FFFFFFFFFFFFFFFFFFFFFFFFFFFFFFFFC2
:106EE000FFFFFFFFFFFFFFFFFFFFFFFFFFFFFFFFB2
:106EF000FFFFFFFFFFFFFFFFFFFFFFFFFFFFFFFFA2
:106F0000FFFFFFFFFFFFFFFFFFFFFFFFFFFFFFFF91
:106F1000FFFFFFFFFFFFFFFFFFFFFFFFFFFFFFFF81
:106F2000FFFFFFFFFFFFFFFFFFFFFFFFFFFFFFFF71
:106F3000FFFFFFFFFFFFFFFFFFFFFFFFFFFFFFFF61
:106F4000FFFFFFFFFFFFFFFFFFFFFFFFFFFFFFFF51
:106F5000FFFFFFFFFFFFFFFFFFFFFFFFFFFFFFFF41
:106F6000FFFFFFFFFFFFFFFFFFFFFFFFFFFFFFFF31
:106F7000FFFFFFFFFFFFFFFFFFFFFFFFFFFFFFFF21
:106F8000FFFFFFFFFFFFFFFFFFFFFFFFFFFFFFFF11
:106F9000FFFFFFFFFFFFFFFFFFFFDFFF9AD696B562
:106FA00075AD55AD55AD75AD75AD96B538C65DEFE2
:106FB000FFFFFFFFFFFFFFFFFFFFFFFFFFFFFFFFE1
:106FC000FFFFFFFFFFFFFFFFFFFFFFFFFFFFFFFFD1
:106FD000FFFF7DEF38C696B596B575AD75AD75AD4D
:106FE00075ADB6B59AD6DFFFFFFFFFFFFFFFFFFFCE
:106FF000FFFFFFFFFFFFFFFFFFFFFFFFFFFFFFFFA1
:10700000FFFFFFFFFFFFFFFFFFFFFFFFFFFFFFFF90
:10701000FFFFFFFFFFFFFFFFFFFFFFFFFFFFFFFF80
:10702000FFFFFFFFFFFFFFFFFFFFFFFFFFFFFFFF70
:10703000FFFFFFFFFFFFFFFFFFFFFFFFFFFFFFFF60
:10704000FFFFFFFFFFFFFFFFFFFFFFFFFFFFFFFF50
:10705000FFFFFFFFFFFFFFFFFFFFFFFFFFFFFFFF40
:10706000FFFFFFFFFFFFFFFFFFFFFFFFFFFFFFFF30
:10707000FFFFFFFFFFFFFFFFFFFFFFFFFFFFFFFF20
:10708000FFFFFFFFFFFFFFFFFFFFFFFFFFFFFFFF10
:10709000FFFFFFFFFFFFFFFFFFFFFFFFFFFFFFFF00
:1070A000FFFFFFFFFFFFFFFFFFFFFFFFFFFFFFFFF0
:1070B000FFFFFFFFFFFFFFFFFFFFFFFFFFFFFFFFE0
:1070C000FFFFFFFF7DEFB6B534A555AD55AD55AD0E
:1070D00055AD55AD55AD55AD55AD34A5F7BD3CE7F6
:1070E000DFFFFFFFFFFFFFFFFFFFFFFFFFFFFFFFD0
:1070F000FFFFFFFFFFFFDFFFDFFF3CE7D7BD34A54A
:1071000055AD55AD55AD55AD55AD55AD55AD55AD6F
:1071100034A575AD3CE7FFFFFFFFFFFFFFFFFFFF5B
:10712000FFFFFFFFFFFFFFFFFFFFFFFFFFFFFFFF6F
:10713000FFFFFFFFFFFFFFFFFFFFFFFFFFFFFFFF5F
:10714000FFFFFFFFFFFFFFFFFFFFFFFFFFFFFFFF4F
:10715000FFFFFFFFFFFFFFFFFFFFFFFFFFFFFFFF3F
:10716000FFFFFFFFFFFFFFFFFFFFFFFFFFFFFFFF2F
:10717000FFFFFFFFFFFFFFFFFFFFFFFFFFFFFFFF1F
:10718000FFFFFFFFFFFFFFFFFFFFFFFFFFFFFFFF0F
:10719000FFFFFFFFFFFFFFFFFFFFFFFFFFFFFFFFFF
:1071A000FFFFFFFFFFFFFFFFFFFFFFFFFFFFFFFFEF
:1071B000FFFFFFFFFFFFFFFFFFFFFFFFFFFFFFFFDF
:1071C000FFFFFFFFFFFFFFFFFFFFFFFFFFFFFFFFCF
:1071D000FFFFFFFFFFFFFFFFFFFFFFFFFFFFFFFFBF
:1071E000FFFFFFFFFFFFFFFFFFFFFFFFFFFFDBDEF4
:1071F00075AD55AD55AD55AD55AD55AD55AD55AD5F
:1072000055AD55AD55AD55AD34A534A5B6B559CE32
:10721000FBDE5DEFDFFFDFFFDFFFDFFFDFFF7DEF87
:107220001CE779CEB6B534A555AD55AD55AD55ADC8
:1072300055AD55AD55AD55AD55AD75AD55AD55AD1E
:1072400055AD9AD6FFFFFFFFFFFFFFFFFFFFFFFFD8
:10725000FFFFFFFFFFFFFFFFFFFFFFFFFFFFFFFF3E
:10726000FFFFFFFFFFFFFFFFFFFFFFFFFFFFFFFF2E
:10727000FFFFFFFFFFFFFFFFFFFFFFFFFFFFFFFF1E
:10728000FFFFFFFFFFFFFFFFFFFFFFFFFFFFFFFF0E
:10729000FFFFFFFFFFFFFFFFFFFFFFFFFFFFFFFFFE
:1072A000FFFFFFFFFFFFFFFFFFFFFFFFFFFFFFFFEE
:1072B000FFFFFFFFFFFFFFFFFFFFFFFFFFFFFFFFDE
:1072C000FFFFFFFFFFFFFFFFFFFFFFFFFFFFFFFFCE
:1072D000FFFFFFFFFFFFFFFFFFFFFFFFFFFFFFFFBE
:1072E000FFFFFFFFFFFFFFFFFFFFFFFFFFFFFFFFAE
:1072F000FFFFFFFFFFFFFFFFFFFFFFFFFFFFFFFF9E
:10730000FFFFFFFFFFFFFFFFFFFFFFFFFFFFFFFF8D
:10731000FFFFFFFFFFFFFFFFDBDE75AD55AD55AD96
:1073200055AD55AD55AD55AD55AD55AD55AD55AD4D
:1073300055AD55AD55AD55AD55AD55AD55AD96B5F4
:1073400096B5B6B5B6B5B6B596B596B555AD55AD17
:1073500055AD55AD55AD55AD55AD55AD55AD55AD1D
:1073600055AD55AD55AD55AD55AD55AD55AD55AD0D
:1073700059CEFFFFFFFFFFFFFFFFFFFFFFFFFFFFF4
:10738000FFFFFFFFFFFFFFFFFFFFFFFFFFFFFFFF0D
:10739000FFFFFFFFFFFFFFFFFFFFFFFFFFFFFFFFFD
:1073A000FFFFFFFFFFFFFFFFFFFFFFFFFFFFFFFFED
:1073B000FFFFFFFFFFFFFFFFFFFFFFFFFFFFFFFFDD
:1073C000FFFFFFFFFFFFFFFFFFFFFFFFFFFFFFFFCD
:1073D000FFFFFFFFFFFFFFFFFFFFFFFFFFFFFFFFBD
:1073E000FFFFFFFFFFFFFFFFFFFFFFFFFFFFFFFFAD
:1073F000FFFFFFFFFFFFFFFFFFFFFFFFFFFFFFFF9D
:10740000FFFFFFFFFFFFFFFFFFFFFFFFFFFFFFFF8C
:10741000FFFFFFFFFFFFFFFFFFFFFFFFFFFFFFFF7C
:10742000FFFFFFFFFFFFFFFFFFFFFFFFFFFFFFFF6C
:10743000FFFFFFFFFFFFFFFFFFFFFFFFFFFFFFFF5C
:10744000FFFFDBDE34A555AD55AD55AD55AD55ADA2
:1074500055AD55AD55AD55AD55AD55AD55AD55AD1C
:1074600055AD55AD55AD55AD55AD55AD55AD55AD0C
:1074700055AD55AD55AD55AD55AD55AD55AD55ADFC
:1074800055AD55AD55AD55AD55AD55AD55AD55ADEC
:1074900055AD55AD55AD55AD55AD55AD34A579CEC0
:1074A000FFFFFFFFFFFFFFFFFFFFFFFFFFFFFFFFEC
:1074B000FFFFFFFFFFFFFFFFFFFFFFFFFFFFFFFFDC
:1074C000FFFFFFFFFFFFFFFFFFFFFFFFFFFFFFFFCC
:1074D000FFFFFFFFFFFFFFFFFFFFFFFFFFFFFFFFBC
:1074E000FFFFFFFFFFFFFFFFFFFFFFFFFFFFFFFFAC
:1074F000FFFFFFFFFFFFFFFFFFFFFFFFFFFFFFFF9C
:10750000FFFFFFFFFFFFFFFFFFFFFFFFFFFFFFFF8B
:10751000FFFFFFFFFFFFFFFFFFFFFFFFFFFFFFFF7B
:10752000FFFFFFFFFFFFFFFFFFFFFFFFFFFFFFFF6B
:10753000FFFFFFFFFFFFFFFFFFFFFFFFFFFFFFFF5B
:10754000FFFFFFFFFFFFFFFFFFFFFFFFFFFFFFFF4B
:10755000FFFFFFFFFFFFFFFFFFFFFFFFFFFFFFFF3B
:10756000FFFFFFFFFFFFFFFFFFFFFFFF1CE755AD22
:1075700055AD55AD55AD55AD55AD55AD55AD55ADFB
:1075800055AD55AD55AD55AD55AD55AD55AD55ADEB
:1075900055AD55AD55AD55AD55AD55AD55AD55ADDB
:1075A00055AD55AD55AD55AD55AD55AD55AD55ADCB
:1075B00055AD55AD55AD55AD55AD55AD55AD55ADBB
:1075C00055AD55AD55AD55AD55AD55ADBAD6FFFF21
:1075D000FFFFFFFFFFFFFFFFFFFFFFFFFFFFFFFFBB
:1075E000FFFFFFFFFFFFFFFFFFFFFFFFFFFFFFFFAB
:1075F000FFFFFFFFFFFFFFFFFFFFFFFFFFFFFFFF9B
:10760000FFFFFFFFFFFFFFFFFFFFFFFFFFFFFFFF8A
:10761000FFFFFFFFFFFFFFFFFFFFFFFFFFFFFFFF7A
:10762000FFFFFFFFFFFFFFFFFFFFFFFFFFFFFFFF6A
:10763000FFFFFFFFFFFFFFFFFFFFFFFFFFFFFFFF5A
:10764000FFFFFFFFFFFFFFFFFFFFFFFFFFFFFFFF4A
:10765000FFFFFFFFFFFFFFFFFFFFFFFFFFFFFFFF3A
:10766000FFFFFFFFFFFFFFFFFFFFFFFFFFFFFFFF2A
:10767000FFFFFFFFFFFFFFFFFFFFFFFFFFFFFFFF1A
:10768000FFFFFFFFFFFFFFFFFFFFFFFFFFFFFFFF0A
:10769000FFFFFFFFFFFFBEF796B555AD55AD55ADEA
:1076A00055AD55AD55AD55AD55AD55AD55AD55ADCA
:1076B00055AD55AD55AD55AD55AD55AD55AD55ADBA
:1076C00055AD55AD55AD55AD55AD55AD55AD55ADAA
:1076D00055AD55AD55AD55AD55AD55AD55AD55AD9A
:1076E00055AD55AD55AD55AD55AD55AD55AD55AD8A
:1076F00055AD55AD55AD55AD55AD5DEFFFFFFFFF38
:10770000FFFFFFFFFFFFFFFFFFFFFFFFFFFFFFFF89
:10771000FFFFFFFFFFFFFFFFFFFFFFFFFFFFFFFF79
:10772000FFFFFFFFFFFFFFFFFFFFFFFFFFFFFFFF69
:10773000FFFFFFFFFFFFFFFFFFFFFFFFFFFFFFFF59
:10774000FFFFFFFFFFFFFFFFFFFFFFFFFFFFFFFF49
:10775000FFFFFFFFFFFFFFFFFFFFFFFFFFFFFFFF39
:10776000FFFFFFFFFFFFFFFFFFFFFFFFFFFFFFFF29
:10777000FFFFFFFFFFFFFFFFFFFFFFFFFFFFFFFF19
:10778000FFFFFFFFFFFFFFFFFFFFFFFFFFFFFFFF09
:10779000FFFFFFFFFFFFFFFFFFFFFFFFFFFFFFFFF9
:1077A000FFFFFFFFFFFFFFFFFFFFFFFFFFFFFFFFE9
:1077B000FFFFFFFFFFFFFFFFFFFFFFFFFFFFFFFFD9
:1077C000FFFFF7BD34A555AD55AD55AD55AD55AD24
:1077D00055AD55AD55AD55AD55AD55AD55AD55AD99
:1077E00055AD55AD55AD55AD55AD55AD55AD55AD89
:1077F00055AD55AD55AD55AD55AD55AD55AD55AD79
:1078000055AD55AD55AD55AD55AD55AD55AD55AD68
:1078100055AD55AD55AD55AD55AD55AD55AD55AD58
:1078200055AD55AD55AD96B5BEF7FFFFFFFFFFFF58
:10783000FFFFFFFFFFFFFFFFFFFFFFFFFFFFFFFF58
:10784000FFFFFFFFFFFFFFFFFFFFFFFFFFFFFFFF48
:10785000FFFFFFFFFFFFFFFFFFFFFFFFFFFFFFFF38
:10786000FFFFFFFFFFFFFFFFFFFFFFFFFFFFFFFF28
:10787000FFFFFFFFFFFFFFFFFFFFFFFFFFFFFFFF18
:10788000FFFFFFFFFFFFFFFFFFFFFFFFFFFFFFFF08
:10789000FFFFFFFFFFFFFFFFFFFFFFFFFFFFFFFFF8
:1078A000FFFFFFFFFFFFFFFFFFFFFFFFFFFFFFFFE8
:1078B000FFFFFFFFFFFFFFFFFFFFFFFFFFFFFFFFD8
:1078C000FFFFFFFFFFFFFFFFFFFFFFFFFFFFFFFFC8
:1078D000FFFFFFFFFFFFFFFFFFFFFFFFFFFFFFFFB8
:1078E000FFFFFFFFFFFFFFFFFFFFFFFF79CE34A584
:1078F00055AD55AD55AD55AD55AD55AD55AD55AD78
:1079000055AD55AD55AD55AD55AD55AD55AD55AD67
:1079100055AD55AD55AD55AD55AD55AD55AD55AD57
:1079200055AD55AD55AD55AD55AD55AD55AD55AD47
:1079300055AD55AD55AD55AD55AD55AD55AD55AD37
:1079400055AD55AD55AD55AD55AD55AD55AD55AD27
:1079500055AD55AD38C6FFFFFFFFFFFFFFFFFFFF2F
:10796000FFFFFFFFFFFFFFFFFFFFFFFFFFFFFFFF27
:10797000FFFFFFFFFFFFFFFFFFFFFFFFFFFFFFFF17
:10798000FFFFFFFFFFFFFFFFFFFFFFFFFFFFFFFF07
:10799000FFFFFFFFFFFFFFFFFFFFFFFFFFFFFFFFF7
:1079A000FFFFFFFFFFFFFFFFFFFFFFFFFFFFFFFFE7
:1079B000FFFFFFFFFFFFFFFFFFFFFFFFFFFFFFFFD7
:1079C000FFFFFFFFFFFFFFFFFFFFFFFFFFFFFFFFC7
:1079D000FFFFFFFFFFFFFFFFFFFFFFFFFFFFFFFFB7
:1079E000FFFFFFFFFFFFFFFFFFFFFFFFFFFFFFFFA7
:1079F000FFFFFFFFFFFFFFFFFFFFFFFFFFFFFFFF97
:107A0000FFFFFFFFFFFFFFFFFFFFFFFFFFFFFFFF86
:107A1000FFFFFFFFFFFF1CE775AD55AD55AD55AD41
:107A200055AD55AD55AD55AD55AD55AD55AD55AD46
:107A300055AD55AD55AD55AD55AD55AD55AD55AD36
:107A400055AD55AD55AD55AD55AD55AD55AD55AD26
:107A500055AD55AD55AD55AD55AD55AD55AD55AD16
:107A600055AD55AD55AD55AD55AD55AD55AD55AD06
:107A700055AD55AD55AD55AD55AD55AD55AD55ADF6
:107A800055ADDBDEDFFFFFFFFFFFFFFFFFFFFFFF67
:107A9000FFFFFFFFFFFFFFFFFFFFFFFFFFFFFFFFF6
:107AA000FFFFFFFFFFFFFFFFFFFFFFFFFFFFFFFFE6
:107AB000FFFFFFFFFFFFFFFFFFFFFFFFFFFFFFFFD6
:107AC000FFFFFFFFFFFFFFFFFFFFFFFFFFFFFFFFC6
:107AD000FFFFFFFFFFFFFFFFFFFFFFFFFFFFFFFFB6
:107AE000FFFFFFFFFFFFFFFFFFFFFFFFFFFFFFFFA6
:107AF000FFFFFFFFFFFFFFFFFFFFFFFFFFFFFFFF96
:107B0000FFFFFFFFFFFFFFFFFFFFFFFFFFFFFFFF85
:107B1000FFFFFFFFFFFFFFFFFFFFFFFFFFFFFFFF75
:107B2000FFFFFFFFFFFFFFFFFFFFFFFFFFFFFFFF65
:107B3000FFFFFFFFFFFFFFFFFFFFFFFFFFFFFFFF55
:107B4000BEF7D7BD55AD55AD55AD55AD55AD55ADE0
:107B500055AD55AD55AD55AD55AD55AD55AD55AD15
:107B600055AD55AD55AD55AD55AD55AD55AD55AD05
:107B700055AD55AD55AD55AD55AD55AD55AD55ADF5
:107B800055AD55AD55AD55AD55AD55AD55AD55ADE5
:107B900055AD55AD55AD55AD55AD55AD55AD55ADD5
:107BA00055AD55AD55AD55AD55AD55AD55AD96B57C
:107BB000BEF7FFFFFFFFFFFFFFFFFFFFFFFFFFFF1E
:107BC000FFFFFFFFFFFFFFFFFFFFFFFFFFFFFFFFC5
:107BD000FFFFFFFFFFFFFFFFFFFFFFFFFFFFFFFFB5
:107BE000FFFFFFFFFFFFFFFFFFFFFFFFFFFFFFFFA5
:107BF000FFFFFFFFFFFFFFFFFFFFFFFFFFFFFFFF95
:107C0000FFFFFFFFFFFFFFFFFFFFFFFFFFFFFFFF84
:107C1000FFFFFFFFFFFFFFFFFFFFFFFFFFFFFFFF74
:107C2000FFFFFFFFFFFFFFFFFFFFFFFFFFFFFFFF64
:107C3000FFFFFFFFFFFFFFFFFFFFFFFFFFFFFFFF54
:107C4000FFFFFFFFFFFFFFFFFFFFFFFFFFFFFFFF44
:107C5000FFFFFFFFFFFFFFFFFFFFFFFFFFFFFFFF34
:107C6000FFFFFFFFFFFFFFFFFFFFFFFF79CE55ADD7
:107C700055AD55AD55AD55AD55AD55AD55AD55ADF4
:107C800055AD55AD55AD55AD55AD55AD55AD55ADE4
:107C900055AD55AD55AD55AD55AD55AD55AD55ADD4
:107CA00055AD55AD55AD55AD55AD55AD55AD55ADC4
:107CB00055AD55AD55AD55AD55AD55AD55AD55ADB4
:107CC00055AD55AD55AD55AD55AD55AD55AD55ADA4
:107CD00055AD55AD55AD55AD55AD34A538C6FFFFC5
:107CE000FFFFFFFFFFFFFFFFFFFFFFFFFFFFFFFFA4
:107CF000FFFFFFFFFFFFFFFFFFFFFFFFFFFFFFFF94
:107D0000FFFFFFFFFFFFFFFFFFFFFFFFFFFFFFFF83
:107D1000FFFFFFFFFFFFFFFFFFFFFFFFFFFFFFFF73
:107D2000FFFFFFFFFFFFFFFFFFFFFFFFFFFFFFFF63
:107D3000FFFFFFFFFFFFFFFFFFFFFFFFFFFFFFFF53
:107D4000FFFFFFFFFFFFFFFFFFFFFFFFFFFFFFFF43
:107D5000FFFFFFFFFFFFFFFFFFFFFFFFFFFFFFFF33
:107D6000FFFFFFFFFFFFFFFFFFFFFFFFFFFFFFFF23
:107D7000FFFFFFFFFFFFFFFFFFFFFFFFFFFFFFFF13
:107D8000FFFFFFFFFFFFFFFFFFFFFFFFFFFFFFFF03
:107D9000FFFFFFFFFFFF3CE755AD55AD55AD55ADBE
:107DA00055AD55AD55AD55AD55AD55AD55AD55ADC3
:107DB00055AD55AD55AD55AD55AD55AD55AD55ADB3
:107DC00055AD55AD55AD55AD55AD55AD55AD55ADA3
:107DD00055AD55AD55AD55AD55AD55AD55AD55AD93
:107DE00055AD55AD55AD55AD55AD55AD55AD55AD83
:107DF00055AD55AD55AD55AD55AD55AD55AD55AD73
:107E000055AD55AD55AD55AD55ADFBDEFFFFFFFF93
:107E1000FFFFFFFFFFFFFFFFFFFFFFFFFFFFFFFF72
:107E2000FFFFFFFFFFFFFFFFFFFFFFFFFFFFFFFF62
:107E3000FFFFFFFFFFFFFFFFFFFFFFFFFFFFFFFF52
:107E4000FFFFFFFFFFFFFFFFFFFFFFFFFFFFFFFF42
:107E5000FFFFFFFFFFFFFFFFFFFFFFFFFFFFFFFF32
:107E6000FFFFFFFFFFFFFFFFFFFFFFFFFFFFFFFF22
:107E7000FFFFFFFFFFFFFFFFFFFFFFFFFFFFFFFF12
:107E8000FFFFFFFFFFFFFFFFFFFFFFFFFFFFFFFF02
:107E9000FFFFFFFFFFFFFFFFFFFFFFFFFFFFFFFFF2
:107EA000FFFFFFFFFFFFFFFFFFFFFFFFFFFFFFFFE2
:107EB000FFFFFFFFFFFFFFFFFFFFFFFFFFFFFFFFD2
:107EC000DFFFB6B555AD55AD55AD55AD55AD55AD5D
:107ED00055AD55AD55AD55AD55AD55AD55AD55AD92
:107EE00055AD55AD55AD55AD55AD55AD55AD55AD82
:107EF00055AD55AD55AD55AD55AD55AD55AD55AD72
:107F000055AD55AD55AD55AD55AD55AD55AD55AD61
:107F100055AD55AD55AD55AD55AD55AD55AD55AD51
:107F200055AD55AD55AD55AD55AD55AD55AD55AD41
:107F300055AD55AD55AD96B5DFFFFFFFFFFFFFFF18
:107F4000FFFFFFFFFFFFFFFFFFFFFFFFFFFFFFFF41
:107F5000FFFFFFFFFFFFFFFFFFFFFFFFFFFFFFFF31
